:100000000080001059070000450700004707000066
:10001000490700004B0700004D07000000000000EA
:100020000000000000000000000000004F0700007A
:1000300051070000000000005307000055070000B2
:100040005707000057070000570700005707000038
:100050005707000057070000570700005707000028
:100060005707000057070000570700005707000018
:100070005707000057070000570700000906000057
:1000800057070000570700005707000057070000F8
:1000900057070000570700005707000057070000E8
:1000A00057070000570700005707000057070000D8
:1000B00057070000570700005707000057070000C8
:1000C000570700005707000057070000FC300000EA
:1000D0000000001004000000FC30000000C00720F9
:1000E00000000000040000101402000000C00720FF
:1000F0000000000080B400AF0A4B1B68094A23F0DF
:1001000030031360074B1B68064A23F0C0031360DB
:10011000054B1B68044A43F00403136000BFBD464F
:1001200080BC704700C0024000C0092080B582B08A
:1001300000AF03460A46FB711346BB71FB79BA79DF
:100140001946114801F0F4F8BB79012B0AD10F4B85
:100150005B69FA79012101FA02F211460B4A0B435D
:1001600053610DE0BB79002B0AD1084B5B69FA792A
:10017000012101FA02F2D2431146044A0B405361B5
:1001800000BF0837BD4680BDD02F000000C0092049
:1001900080B584B000AF78600023FB720023FB6061
:1001A000FFF7A8FF00210220FFF7C0FF0023FB603C
:1001B00002E0FB680133FB60FB68234A9342F8DDF1
:1001C00001210220FFF7B2FF0023FB6002E0FB6881
:1001D0000133FB60FB681D4A9342F8DD1C4B402253
:1001E0009A6100F049FA422000F046F90346FB729A
:1001F000FB7A1946174801F09BF8FB7A122B01D0C5
:1002000000231DE000F09CF8786800F0C1F80021A0
:100210000E2000F043F900210F2000F03FF90C20E0
:1002200000F02AF9034643F00303DBB219460C2021
:1002300000F034F9112000F08BF800F079F8012378
:1002400018461037BD4680BD9F8601007F969800F6
:1002500000C00920E42F000080B582B000AF7860B4
:1002600000F066F87B68002B02D000F0F1F801E0A6
:1002700000F0DAF800210D2000F010F90021222012
:1002800000F00CF9012318460837BD4680BD80B543
:1002900082B000AF0023FB718321012000F0FEF843
:1002A00000BF122000F0E8F8034603F00803002B1B
:1002B000F7D00821122000F0F1F801231846083782
:1002C000BD4680BD80B584B000AF78603960222023
:1002D00000F0D2F80346BB600023FB60BA683B68BD
:1002E0001344FF2B03D9BB68C3F1FF033B6000231A
:1002F000FB600AE07A68FB6813441B78194600200B
:1003000000F0CCF8FB680133FB60FA683B689A4266
:10031000F0D3BB68DAB23B68DBB21344DBB21946F8
:10032000222000F0BBF83B6818461037BD4680BD60
:1003300080B500AF8121012000F0B0F800BF80BD82
:1003400080B500AF8021012000F0A8F800BF80BD7B
:1003500080B582B000AF78607B68012B02DC02239D
:100360007B6004E07B68112B01DD11237B607B68DF
:10037000DBB2023BDBB25BB263F07F035BB2DBB2AA
:100380001946092000F08AF800BF0837BD4680BD35
:10039000F0B585B000AF7860204A7B6813601F4BD2
:1003A0001B681A4679681E4800F0C2FF7B684FEA56
:1003B000E3745E13DD041B4A4FF000032846314608
:1003C00002F0A4F903460C46C7E90234D7E9021249
:1003D0004FF000034FF000040B0C43EA0243140CEF
:1003E000DBB21946062000F059F8D7E902124FF0A7
:1003F00000034FF000040B0A43EA0263140ADBB265
:100400001946072000F04AF83B7A1946082000F008
:1004100045F800BF1437BD46F0BD00BF0C0000100A
:10042000F42F00000048E80180B500AF074B002220
:100430001A601D2000F020F8034623F00103DBB210
:1004400019461D2000F02AF800BF80BD08000010EA
:1004500080B500AF074B01221A601D2000F00CF898
:10046000034643F00103DBB219461D2000F016F8E5
:1004700000BF80BD0800001080B582B000AF034609
:10048000FB71FB7903F07F03DBB20021184600F01B
:100490001BF8034618460837BD4680BD80B582B0BC
:1004A00000AF03460A46FB711346BB71FB7963F04C
:1004B0007F03DBB2BA791146184600F005F800BF99
:1004C0000837BD4680BDFFFF80B584B000AF03464E
:1004D0000A46FB711346BB710023FB730B4B402292
:1004E000DA61FB79184600F011F90346FB73BB791A
:1004F000184600F00BF90346FB73044B40229A6147
:10050000FB7B18461037BD4680BD00BF00C00920E8
:1005100080B485B000AF78600023FB600DE000235D
:10052000BB6002E0BB680133BB60BB684CF24F327A
:100530009342F7D9FB680133FB60FA687B689A4203
:10054000EDD300BF1437BD4680BC7047B0B586B050
:1005500000AF1A4B1B681946194800F0E9FE19480C
:10056000FFF716FE0346002B04D1174800F0E0FE0B
:1005700000231FE000237B61144B3C461D460FCD3A
:100580000FC42B6823704123FB74114800F0D0FE88
:100590004FF47A70FFF7BCFF0020FFF75DFE3B468B
:1005A00011211846FFF78EFEFFF771FE094800F093
:1005B000BFFEEAE718461837BD46B0BD0000001080
:1005C00008300000C0CA89361C30000054300000DA
:1005D000303000004830000080B483B000AF0346E4
:1005E000FB71FB7903F01F03012202FA03F1054AB4
:1005F00097F907305B0942F8231000BF0C37BD465E
:1006000080BC704700E100E080B483B000AF164BBF
:10061000DB697B607B6803F00103002B07D0134B81
:100620001B680133114A13600F4B01221A627B6869
:1006300003F00203002B07D00D4B1B6801330C4A5B
:100640001360094B02221A627B6803F00403002B3B
:1006500005D0084B1B680133064A136000BF00BF7A
:100660000C37BD4680BC70470000034024000010DA
:10067000280000102000001080B500AF1F4BD3F8F9
:10068000C4301E4A43F48063C2F8C4301B4BD3F815
:10069000A8311A4A43F44013C2F8A831184B1B681A
:1006A000174A23F47F231360154B1B68144A43F445
:1006B0002A231360124B1B68114A23F44053136022
:1006C000104B1B680F4A43F0400313600E4B40F27F
:1006D00007721A600C4B02221A610F20FFF77CFF91
:1006E000094B5B68084A23F004035360064B02225F
:1006F0005A60054B03225A6100BF80BD00C00F4005
:1007000000C0024000C009200000034080B485B052
:1007100000AF0346FB710023FB73094AFB7993602A
:1007200000BF074BDB6803F01003002BF9D1044B2B
:100730009B68FB73FB7B18461437BD4680BC704733
:1007400000000340FEE7FEE7FEE7FEE7FEE7FEE708
:10075000FEE7FEE7FEE7FEE708B50C4A0C4B0D4945
:100760008B420DD30C480D494FF000028842B8BFB0
:1007700040F8042BFADB00F013F800F07FF8FEE7F6
:1007800052F8040F43F8040BEAE700BFF83000000A
:1007900000000010040000100400001018020010F7
:1007A0002022334BC3F8A021D3F8A0215206FBD559
:1007B0000322C3F8042100220120C3F8A821C3F8B2
:1007C000AC212C4AC3F80C01AA21C3F8842055227D
:1007D000C3F88C10C3F88C20C3F88000C3F88C10C9
:1007E000C3F88C20224A1346D2F888104801FBD562
:1007F0000321C2F88010AA21C2F88C105521C2F83A
:100800008C10D3F8882012F0407FFAD02322AA213E
:10081000C3F8A42001205522C3F8AC10C3F8AC20C3
:10082000C3F8A000C3F8AC10C3F8AC20104A1346BC
:10083000D2F8A8104905FBD50321C2F8A010AA21BF
:10084000C2F8AC105521C2F8AC10D3F8A82012F4AD
:10085000407FFAD0084AC3F8C4200022C3F8C82158
:100860001A6822F4704242F480421A60704700BF56
:1008700000C00F4063000500DE87280408B500F0C3
:1008800081FDBDE80840FFF761BE10B5425C43182A
:10089000342A01DC002010BD352A06D1194611F892
:1008A000012F302AFBD0002AF4D01A46302412F847
:1008B000011D392901D11470F9E701311170027855
:1008C000302AE7D01A1A002A01DA0120E3E713F8E8
:1008D00001299A70F6E730B50A258C1FA14200D194
:1008E00030BD90FBF5F3C3EB4312C3EB8202303013
:1008F00000EB420001F801091846EFE70EB430B5ED
:1009000094B017AB53F8044B05463C22002105A8D0
:10091000049301F084FB0A2308936FF000430793CC
:10092000104B4FF0FF320293049B05A8CDE9004322
:100930006FF00043059500F061FD079B0446013B05
:10094000002B079308DB0022059B1A70204614B089
:10095000BDE8304003B0704705A9002001F081FBDD
:10096000F4E700BF690900002DE9F04F9DB0049342
:100970000B68144606934B6881460593079347F628
:10098000F073059ADDF89CA033EA12432AD10023C4
:10099000E370C2F31303069A13434FF06E031BD1A7
:1009A000637066236922A370059B2270002B07DA0F
:1009B000AB4B0325269A136028461DB0BDE8F08F87
:1009C000049B980706D4A74A13F0040FA64B18BF40
:1009D0001346EEE7A54BECE761222370A37062702B
:1009E000A14BE6E720F02003412B00F0A982DDE9CE
:1009F00006010022002302F023FA069E00283FD0C1
:100A0000079B03F1004501230C930022002330468D
:100A1000294602F0FFF9002840F08C8240F22D1B9D
:100A20000FAA3046294601F019FC4FF47A730F9A49
:100A3000CDE910010BFB02FBABF5AB5BABF11C0B83
:100A40009BFBF3FB0020ABEB0202894901F032FC77
:100A5000BBF1000FCDE91A0115DA7BA3D3E900231E
:100A6000CDE91623CBF10005E90714D4DDE9160121
:100A7000DDE9162301F006FF6D10CDE91601F3E75D
:100A8000059D0C90C1E74FF000027A4BCDE916238B
:100A90000BD05D46E8E7DDE91601DDE91A2301F038
:100AA000F1FE012DCDE91A01E0D1DDE91001DDE90A
:100AB0001A2301F06DFF0026CDE912016E4FDDE92A
:100AC000120163A3D3E9002302F0BAF9002840F031
:100AD00095800026684FDDE912015FA3D3E900236A
:100AE00002F002FA002840F09C80DDE9120102F0D9
:100AF00045F905468BEAEB73A3EBEB730D930F9A65
:100B00002846ABEB020602F07CF9324601F0D2FB3C
:100B100000220023BBF1000FCDE91201CDE914231F
:100B200080F2AC8048A3D3E90023CDE9162300224C
:100B30000023CDE91823DDE91667DDE9160100265B
:100B4000DDE91823CDE9082332463B4601F0B8FF22
:100B5000DDE9082302F08CF8CDE91801CDE916672C
:100B6000DDE916010022434B01F08CFE02460B46E4
:100B700000203F4901F0A4FF00223E4B01F008FF96
:100B8000CDE91801DDF8348018F0010F40F08D80B8
:100B9000DDE91623DDE91801DDE91867CDE9080173
:100BA0001046194602F064F8DDE9082302F060F807
:100BB00032463B4601F066FECDE91801DDE916013B
:100BC000DDE9162301F05EFECDE91601DDE91667C9
:100BD000DDE916010026DDE91823CDE908233246B8
:100BE0003B4601F06DFFDDE9082302F041F84FEAD2
:100BF0006808CDE91801CDE91667C5E7DDE91201FE
:100C000032463B4601F03EFECDE91201DDE91A0114
:100C100032463B4601F0BCFE0BF1FF3BCDE91A0129
:100C20004DE7DDE9120132463B4601F0B1FECDE968
:100C30001201DDE91A0132463B4601F023FE0BF1B9
:100C4000010BCDE91A0146E79A9999999999C93FFB
:100C500000000000006AF8400000000080842E417F
:100C60009E3000006E300000EC3000006C30000060
:100C70000000F03F00001440000024404FF000024C
:100C8000B94BCDE916234FF000024FF00003CDE938
:100C900018237FF477AFDDE91201DDE9102302F0BC
:100CA000F9F8002847D1013D29E7DDE91223CDE914
:100CB0000823DDE91823DDE91601CDE90A23DDE982
:100CC0001823DDE9146701F0D3FF32463B4601F0FB
:100CD000D9FDDDE90A2306460F46DDE9080101F0EA
:100CE000D1FD02460B463046394601F0C1FFCDE941
:100CF0001401DDE91601DDE9122301F0C3FDCDE9A0
:100D00001201DDE91267DDE912010026DDE9142395
:100D1000CDE9082332463B4601F0D2FEDDE9082347
:100D200001F0A6FFB8F1010FCDE91401CDE912677A
:100D30007FF42EAFAFE7DDE91223DDE9100101F00A
:100D4000BFFECDE91001DDE91423DDE9100101F05A
:100D5000B7FECDE91001DDE91A23DDE9100101F04C
:100D600017FE7FA3D3E90023CDE91001DDE91001CF
:100D700001F088FDCDE91001DDE9100101F0FEFF71
:100D8000DDE91067804602F03CF802460B4630462B
:100D9000394601F095FE72A3D3E9002301F072FDFC
:100DA000CDE91001DDE9100101F0E8FF0646002E53
:100DB000C0F28C806D4B9E4200F38F80B8F1000F23
:100DC000C0F29280694B984500F39480684A95423E
:100DD00000F39680674B0A2198FBF3F296FBF3F33E
:100DE000654801FB052500FB028800FB036601FB4B
:100DF00008384E430BF1FF3B21463027284601F8C7
:100E0000067BFFF768FD04F10C014046FFF763FD28
:100E100004F112013046FFF75EFD002323750C9BA1
:100E20000BF1050BE77443EA8B0B1BF0010F00F08D
:100E30008A80524B269A2BF0010B13600423B9F1E0
:100E4000610F9BFBF3FBDAF800500DD000F3A48098
:100E5000B9F1450F00F0AC80B9F1470F00F0E78120
:100E6000B9F1410F40F0E181059B0027C3F3130165
:100E7000069B00201E461A46059B0F43C3F30A51EA
:100E80000643002900F00A81A1F2FF30002D40F056
:100E90000B81049B1B0700F1078100290346384999
:100EA000384814BF31223022B9F1610F18BF014612
:100EB0002046FFF723FD314A079B3349054612EAD6
:100EC000230338BF0B46269A136075E506F5742692
:100ED00006F5107608F1FF3869E7A6F57426A6F541
:100EE000107608F1010866E708F5742808F510780F
:100EF000013D63E7A8F57428A8F51078013562E78D
:100F00009D427FF779AF0A226FF0090395FBF2F15A
:100F100003FB01551D480BF1010B00FB058595FBFB
:100F2000F2F803FB085300FB0366053696FBF2F666
:100F30000D4661E700266FF0040BB04635465BE7CF
:100F40004FF0000B71E7049B9A0706D4104A13F088
:100F5000040F0D4B18BF13466CE70E4B6AE700BF3A
:100F60000000000080842E41000014403F420F002A
:100F70009F860100A08601006079FEFF9E30000080
:100F80007030000078300000EC30000040420F006C
:100F90006E3000006C300000B9F1660F00F0668121
:100FA000B9F1670F00F04381B9F1650F40F03D8161
:100FB000DAF80030112B05DD299A113B136011235B
:100FC000CAF80030049BDAF8005013F4006605F10B
:100FD000020504D129462046FFF757FC8344637875
:100FE0002370DAF8003023B940F60803049A1A4255
:100FF0006CD02E236370299B1B68002BC2BF3E233D
:101000006355013576B1049B19070BD46219151B82
:1010100012F8013D302BFAD03E2BF8D02E2B08BF12
:1010200005F1FF35BBF1000FB6BF2D212B21CBF110
:10103000000B6A1CBBF57A7F04F8059005F10203EA
:10104000A1540ADB4FF47A729BFBF2F202F13001F9
:10105000E1549C4B03FB02BBEB1CBBF1630F0ADDAD
:1010600064229BFBF2F202F13001E1546FF0630164
:1010700001FB02BB01330A229BFBF2F2D2B202F166
:101080003001E1549D1C1C44C2EB4213C2EB8302AD
:101090000BF1300B0BEB420262708DE456EA070352
:1010A000894808BF0020F1E6002902908749884856
:1010B00014BF31223022CDE90067B9F1610F18BFAA
:1010C00001462B462046FFF719FCF4E6012592E77E
:1010D0005B449D1C122DC1BF299A113B136013253F
:1010E00076B929462046FFF7D0FB48B17FEA0B07C7
:1010F00005F1010504D1637823702E236370CDE0E0
:10110000012F04EB05030CD11A1B002A02DC013568
:101110003023F1E713F801299A70F5E713F8012954
:10112000DA701A1B002AF9DC302323702E23637037
:101130003C23A370289B013F02351F60AEE00BEB00
:101140000307BD1C122D51DD8EBB13212046FFF776
:101150009CFB60B314250BF1010B6A1E5A45234614
:1011600027DD5A7803F8012B1A1B9345F9DA2E2252
:1011700004EB0B035A70DAF80030299A5B44113BF8
:101180001360002B40F08F80002E44D0049B1A0780
:101190003FF512AC6219151B12F8013D302BFAD045
:1011A0003E2BF8D02E2B7FF407AC013D04E4132531
:1011B000D3E7597803F8011B191B8A42F9DC3C225A
:1011C000631903F8012CABEB050B289A0BF1020312
:1011D00013602E226255DAF800206B1C002A6CD0B6
:1011E000299902350A603E22E254CDE73EB92946EC
:1011F0002046FFF74AFB10B10BF1010BFD1C234603
:101200005A7803F8012B1A1B9345F9DA2E23A344CD
:101210008BF80130B8E7DAF80030002B7FF4CCAB64
:10122000049B1B073FF5C8ABBFE74FF06709049B62
:10123000002D43F400630493DCBF0123CAF800309F
:10124000DAF8001020461129A8BF11210131FFF75B
:101250001CFBDAF8003083445B4528DD1BF1040FEA
:1012600025DB0BF101029B1ACAF80030049ABBF18E
:10127000000FDAF8003002F40066BFF660AFCBF181
:1012800000075A1CBA42BFF623AF302323702E2327
:1012900002256370DAF80030299A1360299B1B68D5
:1012A000002B7FF771AF3E23635501356CE7013B9F
:1012B000CAF80030A9F102097AE61D46002E7FF433
:1012C00065AFADE718FCFFFF01FCFFFF80300000B9
:1012D0008F300000F0B595B004460D46164600214B
:1012E0003C2205A81F4600F09AFE0A2308936FF0DF
:1012F00000430594002407930C4B6A1ECDE901734B
:101300000096234605A800F079F8079B0546013BA7
:10131000A342079304DB059B1C70284615B0F0BD63
:1013200005A9204600F09DFEF7E700BF690900000F
:101330000FB473B506AB53F8046B0121324668460F
:101340000193FFF7C7FF041E13DD651C284601F05B
:101350000DF8009068B1019B32462946FFF7BAFFAD
:10136000074B22460099186D01F02CFE009801F001
:1013700061F8204602B0BDE8704004B0704700BF7D
:101380003800001010B5174A1749002000F009FF77
:101390004FF480734FF480620021124800F0FAFD90
:1013A000124A1349012000F0FCFE4FF480734FF401
:1013B000806200210D4800F0EDFD0E4B1B68022BF2
:1013C0000EDD0D4A0A49022000F0EBFEBDE8104098
:1013D0004FF480734FF480620021074800F0DABDBB
:1013E00010BD00BF38000010A030000074000010D5
:1013F000A2300000F8300000B00000102DE9F04FDE
:101400009FB0CDE90A23DDE928390022054605927F
:10141000187803F1010818B905981FB0BDE8F08FDE
:10142000252819D0DDE90A67059B1946DA175C1CE7
:101430001346B142BB4108DAAB68013B002BAB60FD
:1014400006DB2B685A1C2A60187005944346DFE7B8
:10145000294600F006FEF8E7002409E02D2F04D00D
:10146000302F0FD144F4007401E044F00104B04681
:10147000464616F8017B2B2F12D0EFD8202F12D022
:10148000232F13D02A2F14D000230A21A7F13002D2
:10149000D0B209281BD801FB032316F8017BF5E71E
:1014A00044F00204E3E744F00404E0E744F00804F5
:1014B000DDE709F10402D9F800309146002B98F8D5
:1014C0000170BCBF5B4284F0010408F1020623EA0C
:1014D000E3732E2F0D9334D137782A2F0FD00023AA
:1014E0000A2201360693A7F13003D9B209290DD893
:1014F000069916F8017B02FB01330693F3E7D9F84E
:1015000000307778069309F104090236069B002B18
:1015100017DB44F010046C2F0AD137786C2F03BF0F
:10152000777844F060040236013618BF44F0200496
:101530004C2F01D0712F07D1377844F06004013669
:101540000FE000230693E6E7682F1FD13778682F56
:1015500003BF777844F480740236013618BF44F034
:101560008004672F6DDC652F80F2B482472F00F076
:10157000B18216DC412F00F0A782452F00F0AA822D
:10158000002F00F03881CDF83090C4E06A2F03D1ED
:1015900044F040043778D2E77A2FFBD0742FE0D1A3
:1015A000F8E7612F00F0908220DC582FEBD1610624
:1015B00040F1A78109F1070929F0070909F108039A
:1015C0000C93D9E900AB220640F1A4811FFA8AFAF4
:1015D0004FF0000BB54B14F0080FB54A18BF1A4670
:1015E000E00601D524F40074B24BCEE1632F00F085
:1015F0008D80642FC7D1630640F14E8209F107093F
:1016000029F0070909F108030C93D9E900AB20067A
:1016100040F14B820FFA8AFA4FEAEA7BBAF1000FE7
:101620007BF1000380F24782DAF1000AA24A6BEBF9
:101630004B0B14F0100300F0A88124F40074002375
:10164000A3E1702F00F0978106DC6E2F00F0DB80A5
:1016500000F3D581692FCDE7752F00F0F681782F43
:1016600000F05E81732F8ED109F104030C93D9F839
:1016700000A0924BBAF1000F08BF9A46504600F006
:10168000A9FC8346E00603D5069B9B45A8BF9B4665
:101690000D9BA3EB0B0714F00103069313D1059ADE
:1016A00014F4007F0CBF2023302390463C464FEAC1
:1016B000E279013C40F1C580059A27EAE7731A44B4
:1016C000013F0592FF1A059B002498464FEAE379F3
:1016D000AAEB030A5C45C0F2CF80059BBBF1000F6B
:1016E000A8BF5B440593069B002B00F08780059BF9
:1016F0003C4698464FF0200A4FEAE379013C40F11E
:10170000E680059B002FA8BFDB1939E009F104032F
:10171000D9F800700C930D9B14F0010903F1FF3808
:1017200049D1059B14F4007F0CBF202430249A4635
:101730004FEAE37BB8F10108524623D5DDE90A01FF
:10174000531C059382424FEAE2738B4108DAAB687F
:10175000013B002BAB6030DB2B685A1C2A601F70EA
:10176000B9F1000F4AD0059B44469A4620274FEA1C
:10177000E37B013C26D5059BB8F1000FA8BF43448D
:1017800005933BE0DDE90A2392457BEB030308DA8E
:10179000AB68013B002BAB6008DB2B685A1C2A604E
:1017A0001C701AF1010A4BF1000BC3E729462046D1
:1017B00000F057FCF5E7059AC0E72946384600F0E7
:1017C00050FCCDE7DDE90A2392457BEB030308DA01
:1017D000AB68013B002BAB6008DB2B685A1C2A600E
:1017E0001F701AF1010A4BF1000BC2E729462020B5
:1017F00000F037FCF5E7013ECDF83090DDF8309091
:10180000059CB04621E609F104030C936106D9F862
:10181000003005D5059A1046D117C3E90001EDE760
:10182000A20602D5059A1A60E8E7E70503D59DF8F8
:1018300014201A70E2E72406F4D5BDF814201A80AB
:10184000DCE7DDE90A12884579EB020208DAAA68CA
:10185000013A002AAA6008DB2A68511C296013702B
:1018600018F1010849F1000923E7184629460893B1
:1018700000F0F7FB089BF3E7DDE90A23904579EBDD
:1018800003030BDAAB68013B002BAB6018DB2B6862
:101890005A1C2A600AEB080212781A7018F1010823
:1018A00004F1010449F1000914E700BFAB30000066
:1018B000EC300000B33000009E300000A430000087
:1018C0000AEB08032946187800F0CBFBE6E7DDE9D0
:1018D0000A23904579EB030309DAAB68013B002B3F
:1018E000AB6009DB2B685A1C2A6083F800A018F152
:1018F000010849F1000901E72946202000F0B1FB69
:10190000F5E709F104030C93D9F800304FF0000B10
:101910009A4658E6E3057FF55DAE0AF0FF0A57E602
:1019200061061AD509F1070929F0070909F1080329
:101930000C93D9E900AB220618D51FFA8AFA4FF0AA
:10194000000B7F4B14F0080F7E4A18BF1A46E006C2
:1019500001D524F400747C4B17E009F104030C93C7
:10196000D9F800304FF0000B9A46E4E7E305E8D5DC
:101970000AF0FF0AE3E74FF0000B09F104030C93B0
:10198000D9F800306E4A9A466F4B0599DDE90A890D
:10199000B8EB010869EBE1790699CDE90889CDE951
:1019A00010124FF0FF325521CDE91222002216A865
:1019B00081540132202AFAD114F4826F04BF01222B
:1019C0001092672F00F3AA80652F08DA472F06D000
:1019D00000F39A80412F02D0452F40F0A88013AB2E
:1019E000039312AB029310AB019311AB00933846F3
:1019F000234616AA14A92A9FB8470690BEE061069E
:101A000015D509F1070929F0070909F108030C9315
:101A1000D9E900AB220613D51FFA8AFA4FF0000B62
:101A2000484A4A4B14F0080F18BF1A4601E609F15C
:101A300004030C93D9F800304FF0000B9A46E9E705
:101A4000E305EDD50AF0FF0AE8E7600616D509F1CF
:101A5000070929F0070909F108030C93D9E900AB3C
:101A6000210614D51FFA8AFA4FF0000B14F0100368
:101A700002D0002324F40074324A86E709F10403FB
:101A80000C93D9F800304FF0000B9A46E8E7E205D6
:101A9000ECD50AF0FF0AE7E709F104030C93D9F843
:101AA00000309A464FEAE37BB1E5E1057FF5B6AD3C
:101AB0004FFA8AFAB0E5A20704D414F0040F214AC1
:101AC000234BB1E7234AB4E5E3065EBF0D2344F0A0
:101AD0001004069314F0100F069B08BF062309F1AB
:101AE000070929F00709069309F108030C93D9E9BE
:101AF0000023CDE91423002344F480644FF0000A4E
:101B00004FF0000B1A4640E7612F3FF468AF642F97
:101B100000F00A81582F0AD100222BE0702FFBD051
:101B200008DC692F00F000816F2F00F09B800023FC
:101B3000069323E0752F00F0F780782FEBE700BFC6
:101B4000AE300000EC300000C4300000B1300000C6
:101B50006E3000006C3000000AF00F01595C16A8CE
:101B600081544FEA1A1141EA0B714FEA1B108A4661
:101B7000834601325AEA0B010692EDD114F48063D8
:101B80000E9300F0D58000231093129B002BC4BF4E
:101B900003F1FF331093139B002B03DD109A013BDD
:101BA00013441093069B109F11981F4400F012FAE3
:101BB0000D9B4FF00008DF1B04F001030D9340F272
:101BC00001231C42A7EB000700F0DB80C2464FEA6E
:101BD000E87B119B5A1C119293F80090B9F1000F09
:101BE00040F0D6800D9B83B914F4007F0CBF2023F6
:101BF0003023C2463C464FEAE87B013C40F1E4809A
:101C000027EAE7737A1ED71A98440E9B002B00F040
:101C1000F6803024069B4B4500F306810D9B5BB19B
:101C2000C2463C464FF020094FEAE87B013C40F1B8
:101C30009681002FA8BFB844059B4344A0E50AF055
:101C40000702303216A9CA544FEADA0242EA4B724E
:101C50004FEADB0192468B4601335AEA0B020693A8
:101C6000EDD18BE70023F8E75FEA5B014FEA3A002A
:101C70004FEA9A0242EA8B7210EB02084FEA9B038A
:101C800041EB03094FEA181242EA097218EB02000D
:101C90004FEA191349EB030189464946020A42EA11
:101CA000096280184FEA112349EB03014FEA1048FB
:101CB00048EA014818EB00024FEA114949EB0103D9
:101CC000002112EB030843EB01094FEAD80848EA68
:101CD0004978A8FB0C014FEAD9090CFB09111AF14C
:101CE00006024BF10003121A63EB0103CDE9062350
:101CF000069B0AF1300A1809079B40EA037010EBB3
:101D000008024FEA131141EB090302EB8201AAEB2F
:101D1000410A16A901F807A09B46924601375AEAE4
:101D20000B030697A0D129E700274FF00A0CF6E72E
:101D3000069A109B9B1A0E9A48BF134631E7DDE9BD
:101D40000823904579EB030309DAAB68013B002BCC
:101D5000AB6011DB2B685A1C2A6083F800B018F1C5
:101D6000010849F10009AAEB0803002BE7DA27EA8A
:101D7000E778AAEB080729E72946202000F071F947
:101D8000EDE74FF0000907F1FF3A4FF0200BEAE7CB
:101D9000DDE9082392457BEB030308F1010809DA2A
:101DA000AB68013B002BAB6009DB2B685A1C2A6037
:101DB00083F800901AF1010A4BF1000B09E729465C
:101DC000484600F04EF9F5E7DDE908128A457BEB5D
:101DD000020208DAAA68013A002AAA6008DB2A6827
:101DE000511C296013701AF1010A4BF1000B04E732
:101DF000184629460F9300F034F90F9BF3E7C246CB
:101E000030244FEAE87B109B013B002B10936DDAE6
:101E1000C246069C4FEAE87B002C00F38280069BBA
:101E2000002BA8BF9844F9E616AB13F80900C24688
:101E30003C284FEAE87B31D03E2841D1139B013B3F
:101E4000002B13932FDBDDE9082392457BEB030383
:101E500008F1010808DAAB68013B002BAB602ADB14
:101E60002B685A1C2A601C701AF1010A4BF1000BF6
:101E7000E4E7DDE9082392457BEB030308F1010861
:101E800008DAAB68013B002BAB600FDB2B685A1CF8
:101E90002A601C701AF1010A4BF1000B129B013BE6
:101EA000002B1293E5DA09F10109B3E62946302047
:101EB00000F0D7F8EEE72946302000F0D2F8D3E75B
:101EC000DDE9082392457BEB030308F10108EADA18
:101ED000AB68013B002BAB6004DB2B685A1C2A600B
:101EE0001870E0E7294600F0BCF8DCE7DDE90823DC
:101EF00092457BEB030308F1010808DAAB68013B6C
:101F0000002BAB6008DB2B685A1C2A601C701AF18E
:101F1000010A4BF1000B76E72946302000F0A1F8CA
:101F2000F5E7DDE9082392457BEB03030CDAAB68A8
:101F300016AA013B2244002BAB6012F8010C0ADB0D
:101F40002B685A1C2A6018701AF1010A04F1FF3438
:101F50004BF1000B60E7294600F083F8F4E7DDE978
:101F6000082392457BEB030309DAAB68013B002BA6
:101F7000AB6009DB2B685A1C2A6083F800901AF1C9
:101F8000010A4BF1000B51E62946202000F069F8C8
:101F9000F5E700BF70B5C468A5070CD0B2F5007FA7
:101FA00005D0B2F5806F08D0B2F5807F03D1084D1F
:101FB0005E1EAE4204D9012008E0012300F1240195
:101FC000144301610160C361C460002070BD00BFA3
:101FD000FEFFFF0010B5421C830716D1034650F8E0
:101FE000041BA1F1013424EA010414F0803FF5D070
:101FF00011F0FF0F11D011F47F4F0CD011F47F0FAF
:1020000014BF03460333981A04E010F8013B002B79
:10201000E2D1801A10BD0233F5E70133F3E700F097
:102020008DBFC36810B523F02003C3608269836A43
:1020300004469A420ED000F0E8F8E36823F44053D7
:1020400023F0100343F01003E360A36AA361236944
:10205000E3622360E36823F4804323F04003E360FA
:1020600010BDCB6870B523F400220C46CA609906F7
:10207000054602D52046FFF7D4FFD4E902365A1CA4
:1020800010DAB0050ED4C3F1FF2303F57F03FE334E
:10209000A360236846F490365A1CE66022601D70E7
:1020A000E8B270BD41F28A023240022A07D0002312
:1020B00046F08006A360E6604FF0FF30F1E74AF299
:1020C00010033340B3F5004F0AD10021204600F041
:1020D00027FAE368990602D52046FFF7A2FFE668D3
:1020E00046F4903316F4706FE3600ED1606900F02F
:1020F00051FF00B372051ED504F124032361236050
:102100000123E36146F49233E36013F4106F216816
:10211000266926D0E36A99422CBFC6EB0101C6EBC3
:102120000301B9B9731CE3622360E3695A1EA2601C
:1021300023633570B4E74FF4807000F093F94FF4E7
:102140008073E268E36146F494331A4320612060AF
:10215000E260DAE72246304600F0D2F80028E1D00B
:10216000AAE74A1CEDB222600D70E26A2168914232
:102170002CBFC6EB0101C6EB0201E2695B052263DD
:1021800003D40A2D01D08A4209DC0023E6622660CE
:10219000A3602246304600F0B3F800288CD12846D0
:1021A0007FE770B50D4606461046144600F06AF902
:1021B0002B78722B1AD0772B05D0612B23D10823D3
:1021C00048F2020201E00423022215F8011F2B2924
:1021D0000FD0622912D01B07E260666104D502228B
:1021E0000021204600F09CF9204670BD002301220A
:1021F000EBE742F0030243F00203E6E742F0040299
:1022000043F00103E1E70024EEE738B50446056931
:102210000168C36AC06820F40022E26000F0820214
:10222000022A02D04FF0FF3038BD10F48030FBD0CE
:10223000994238BF19468D4208D10020E368E56213
:1022400023F480332560A060E360EDE72246491B5C
:10225000284600F055F80028EFD0E3E7F8B5164619
:102260000023002204460D4600F0D4FD20B10023D7
:10227000002000213360F8BDC5F30A5320462946EB
:10228000A3F2FE327BB9C5F31303E70F03F4002575
:1022900047EA4303C3F3130364000DB9013AF4E7BB
:1022A000204663F3130140F2FE33326063F31E51A4
:1022B000E1E7FFFF70B500231646002204460D46F5
:1022C00000F0A8FD10B10020002170BD40F2FE73A7
:1022D000C5F30A5232449A422046294606DD22229C
:1022E000054B1A60054BD3E90001EEE7002AEADD51
:1022F00062F31E51E9E700BF2C000010F03000002F
:102300002DE9F041D5688046EB020E461446576928
:1023100005D5384600F038FE45F01005A061124B97
:102320002B408BB1A169384600F040FE002806DA48
:10233000E3684FF0FF3043F08003E36011E025F4E1
:10234000003525F01005E56032464146384600F07C
:1023500039FE20F00043F61AA3691E44A661002846
:10236000E6D1BDE8F08100BF10000200F8B5304FA3
:102370003C68002851D10020F8BD2368B3F1805F8C
:1023800039D1D4E9013151B10A68B2F1805F06D187
:10239000DA1C4B681A448B686260A360F1E7AB42B9
:1023A00007DB9E4505DB20464FF0005340F80C3B11
:1023B000E2E7634511D920464FF00052656040F8CE
:1023C0000C2B00EB8502A2604FF080545B1B033B9B
:1023D00040F82540C2E90131CEE761B9A0EB8300A6
:1023E00000F04AF90130C6D04FF0005304F10C0060
:1023F000C4E90035C0E72646A468002CBDD10C30E6
:1024000000F03AF9431CB6D04FF000538460C0E9A5
:10241000003556B938600C30AEE7C31C9D08002665
:1024200005F10A0C05F1030EE7E7B060F3E700BF22
:1024300034000010A8B14FF0805340F80C3C50F825
:10244000042C72B11368B3F1805F0AD150F8083CD4
:10245000516803330B4440F8083C936840F8043C4F
:10246000EDE7704710B5FFF781FF044628B9172242
:10247000034900F0A7FD00F07BFD204610BD00BF22
:10248000D5300000F0B5C46889B0A107054622D058
:10249000220718D4D0E9046700F020F8384600F08D
:1024A0006DFD230502D53046FFF7C4FFA40DA4053A
:1024B00014F1A54F07D12022296A684600F07CFD5F
:1024C000684600F0CFF83C2200212846FFF7A7FD20
:1024D000002009B0F0BD4FF0FF30FAE7F7B5044631
:1024E00098B103B0BDE8F04000F0E4B807FB046029
:1024F00000F0E0F8002818BF4FF0FF350134019BD1
:10250000A342F3DC284603B0F0BD034B05461B682D
:102510003C270193014EF2E7F8300000380000102C
:102520002DE9F843C6683D4B044633400D469046BE
:102530000BB9022747E0D0F81490484600F02AFD76
:1025400007460028F5D1B8F1010F2CD0B8F1020FE1
:102550002ED0B8F1000FECD1002DEADBB00404D589
:102560002368E26A9A4238BFE362A169A9420EDC9D
:102570002368E26A934238BF134622695818801ACA
:10258000A84204DB206B01EB000CAC4536DC0023D9
:10259000C4E9013346F02006A56226F4032626F09E
:1025A0004006E6600FE0204600F03AF80544D3E725
:1025B000484600F0E9FCB0F1000CE26806DA0127B9
:1025C00042F08002E2603846BDE8F883E36A1846CC
:1025D000A3691946236883422CBFC91809180B4602
:1025E00021699206A3EB010303D5A26A9342B8BF07
:1025F00013466345ACBFED186544ADE76D1AB107EE
:1026000044BF281AA060F10744BF9B1AEB1A154477
:1026100048BF6360256026F02006BEE70300100077
:10262000C3689A0705D121220D4B4FF0FF301A6085
:10263000704703F020021B0309D512B1806A0138EC
:1026400070470368826900691344181AF7E70AB1F2
:10265000806A70470368826900691344181A7047DA
:102660002C00001010B50446FFF7B4FC01462046CC
:10267000BDE8104000F094BC70B50B4D2B680BB951
:102680000A4B2B60C41C2E6824F0030434442046FB
:1026900000F030F810B92C60304670BD0C22044BAD
:1026A0004FF0FF361A60F7E73000001018020010F4
:1026B0002C000010C36870B513F00306044611D057
:1026C0009B0611D5856AFFF7ACFCE368204623F42E
:1026D0004053E360FFF799FD002206462946204655
:1026E000FFF71EFF304670BD836905681D4403690E
:1026F000ED1AEAE7044B23B1984234BF00200120D1
:1027000070471846704700BF000000005FF0000CE3
:1027100030B51C0022D112006FD0914206D305467D
:102720000846002100F06FF80446284600F06BF8D8
:102730000A462146BDE830401CF0404F08BF7047B4
:1027400003D54942404261F100015FEA8C0C38BF79
:1027500070475B42524263F10003704742D41C0C45
:1027600004BF1B040CF1100C13F07F4F04BF1B02BD
:102770000CF1080C13F0704F04BF1B010CF1040C9A
:1027800013F0404F04BF0CF1020C5FEA83035CBFFF
:102790000CF1010C5B00CCF1200E22FA0EF4234365
:1027A00002FA0CF200FA0CF520FA0EF001FA0CF421
:1027B000204321FA0EF114461A4600F024F8A4FB37
:1027C0000023AA1A71EB03033CBF1B190138CCF19B
:1027D000200E22FA0CF203FA0EF4224323FA0CF331
:1027E0000021A7E7821A71EB03033CBF02460B46A8
:1027F0004FF0000141F100009CE700200021BDE8FE
:10280000304000F03DB80423B1EB122F09D2090289
:1028100041EA10610002013B08BF7047B1EB122F83
:10282000F5D30018494134BF9142891A40414941CA
:1028300034BF9142891A4041494134BF9142891ABB
:102840004041494134BF9142891A4041494134BF16
:102850009142891A4041494134BF9142891A40410D
:10286000494134BF9142891A4041494134BF9142A4
:10287000891A4041A3F1010313F00F0FD2D1704721
:102880007047FFFF2DE9F04F81EA0306C1F30A57B5
:1028900040F2FF7506F00046002F5AD0AF4258D0E4
:1028A000C3F30A54002C54D0AC4252D04FEA525CCD
:1028B000C1F3130141F480114CEAC3234FEAC2284B
:1028C00043F0004CA1FB0823A8FB00899246274453
:1028D0004A461C4600230025E0FB0C234FF0000B6A
:1028E00012EB0A008246ECFB014543EB0B0160183A
:1028F00045F10001B1F5801F4AEA98021DD2041883
:1029000041EB01052946D30FA7F5806744EA030090
:102910005200D30FC41841F10005B2F1004F40F24C
:10292000FD72234608BF24F00103974208D81846D9
:102930002E4306EB0751BDE8F08FA7F2FF37E8E71B
:10294000002F03DB46F0FF4646F4E0060020314648
:10295000F1E7490011F5001F12D25A0012F5001FCD
:10296000F4D3094A5B0093420BD811424FF00000A8
:1029700008D0134206D046F0FF4141F4E001DAE707
:10298000EFD000200149D6E70000E0FF0000F87F0B
:102990002DE9F043C1F30A5740F2FF7E83EA0104B8
:1029A000002F58D0774556D0C3F30A56002E52D088
:1029B000764550D09446BA1B460D46EAC12141F0F7
:1029C00000474FEA5C5141EAC32343F00049C60285
:1029D0004FEACC284F4508BF46452CD202F2FD31C4
:1029E0005FEA59094FEA3808352200234F4508BFEE
:1029F00046454FEA430305D3B6EB080667EB0907E4
:102A000043F00103B6197F41212A08BF1D46013A50
:102A1000ECD14F4508BF464502D3013308BF01350D
:102A200040F2FD70814204F000420AD802EB0152EC
:102A3000511918460DE07F084FEA360602F2FE31C2
:102A4000CEE70029A4BF42F0FF4242F4E00200209A
:102A50001146BDE8F083184A4800904202D85D0054
:102A6000954202D900201549F3E70B4312EA4303CC
:102A700001D11249DDE704F0004310EA020402D15B
:102A800019462046E5E72A4005D143F0FF4141F4CD
:102A9000E0011046DDE715F5001F05D043F0FF41CA
:102AA000002041F4E001D4E710F5001F4FF00000D2
:102AB000D9D01946CDE700BF0000E0FF0000F87F45
:102AC000944693EA0102F0B405460E4606D503F19A
:102AD00000452B46F0BC624600F0CAB88B4203D8D2
:102AE000844508D38B4206D102F100425640534040
:102AF0002A466546944640F2FF71370D27F400627E
:102B00008A42A7EB135400F0A680944200F09F8005
:102B1000C6F31302C3F313031F2C42F4801143F4D2
:102B2000801352D823FA04F2891A2CFA04F2C4F161
:102B30002004A34013439D42A5EB03022CBF0023B6
:102B40000123154603B101391CFA04F303D05B429B
:102B5000551E02B9013911F4C01F57D1EA0FDB0F1E
:102B600042EA410243EA450352EA030470D0BC1E24
:102B7000510B24D0510C01BF190F41EA02121B0165
:102B8000043CD10C01BF990F41EA82029B00023C38
:102B9000110D02BFD90F41EA420204F1FF344FEA9E
:102BA000D67108BF5B00B1EBD42F4FF0000006BF19
:102BB000184602EB045106F00041F0BC7047190EB4
:102BC00041EA02221B02083CD2E7352C1ED8203CE9
:102BD00023FA04F29542A5EB02002CBF0022012249
:102BE000054602B10139C4F1200293402CFA04F4E5
:102BF0005FEA0C6243EA040306D043F0FF035B4242
:102C0000451E18B9013901E0002BF8D1CA0209D4D8
:102C1000013F7A050FD0EA0F42EA4101DA0F42EA9A
:102C200045055B00002B21F480124FEA075405DBB9
:102C300011192846C1E739051046BEE7013508BF1E
:102C40000132B3F1004F08BF25F00105F0E75CB990
:102C500021462046B1E733034FF0000001D003497D
:102C6000ABE70CB90149F4E73146E2E70000F87F31
:102C700093EA010FF0B405460E4605D503F1004571
:102C80002B46F0BCFFF71CBF8B4288BF1E4640F2AC
:102C9000FF7488BF0B464FEA165184BF15460246A3
:102CA00021F40060A0425ED0A1EB1354844255D0C1
:102CB000C6F31307C3F313031F2C47F4801743F421
:102CC000801327D823FA04F0074422FA04F0C4F151
:102CD0002004A3400343ED1828BF013702FA04F390
:102CE000BA022BD5013508BF01370BB925F0020513
:102CF000360D360506EB5706730013F5001F35BF7A
:102D000031460020FF074B1C34BF47EA5500190528
:102D1000F0BC7047352CE3D8203C23FA04F02D1882
:102D2000C4F1200003FA00F322FA04F428BF0137AB
:102D30002343120618BF43F0FF03D1E7002B01F134
:102D4000FF3207DA013508BF0137B3F1004F08BF82
:102D500025F0010507EB02512846D9E74CB906F0EA
:102D600000412046D4E733034FF0000001D0024970
:102D7000CEE73146F0E700BF0000F87FCB0243EA20
:102D8000505040F21E43A3EB115340F00040FF2B84
:102D900020FA03F011D913F4E06F01D140427047DB
:102DA00011F0804009D04B0013F5001F04D86FF0DC
:102DB000004000EBD17070470020704720B90346F7
:102DC0000246104619467047030C0CBF000401F17F
:102DD0008071030E0CBF000201F50001030F0CBF50
:102DE000000101F58001830F0CBF800001F5001187
:102DF0000028ACBF400001F5801101EBE023420543
:102E0000DFE700F00041002801F18041B8BF4042F7
:102E1000FFF7D4BF10B54C0054EA000C02D152EABF
:102E2000430C09D0994209D1904207D114F5001FF3
:102E30008CBF0020012010BD0120FCE70020FAE734
:102E400030B5054651EA03000BD4580010F5001FB9
:102E50001ED899421AD31BD195422CBF00200120C5
:102E600030BD480010F5001F12D85C0014F5001F9B
:102E70000ED8284302D154EA0200F1D0994205D875
:102E800006D1954294BF00200120E9E70120E7E741
:102E90000020E5E730B551EA03040BD45C0014F5DB
:102EA000001F1FD899421BD31CD190428CBF002019
:102EB000012030BD4D0015F5001F13D85C0014F53E
:102EC000001F0FD899420BD801D1904208D255EA81
:102ED000000307D154EA02030CBF01200020E8E7F9
:102EE0000120E6E70020E4E730B551EA03054FEAA8
:102EF00041040AD414F5001F1ED899421AD81BD1D8
:102F0000904234BF0020012030BD14F5001F13D8BB
:102F10005D0015F5001F0FD899420BD301D19042E7
:102F200008D950EA040307D155EA02030CBF012077
:102F30000020E9E70120E7E70020E5E7034613F07A
:102F4000030F0ED101F0FF0141EA012141EA0141E5
:102F5000043A24BF43F8041BB2F10402F9D202F18F
:102F60000402013A24BF03F8011BFAE77047FFFF90
:102F700018200149ABBE70472600020003B4694621
:102F80000220ABBE02B0704703B469460C20ABBE52
:102F900002B0704703B469460920ABBE02B0704767
:102FA00003B469460E20ABBE02B0704703B4694655
:102FB0000A20ABBE02B070470FB469460D20ABBE0D
:102FC00004B070470FB469460520ABBE04B070472B
:102FD00050696E203A2025642C2076616C7565203E
:102FE00025640A0056657273696F6E206973202527
:102FF000780A00006672657175656E637920697381
:103000002025642C25640A0053797374656D206350
:103010006C6F636B2069732025640A000A20564593
:103020005253494F4E204E4F542031320000000081
:1030300053746172742053656E64696E67206461B5
:103040007461200A00000000446174612073656EA1
:1030500074200A00446174612066726F6D203738F5
:103060003738370A0000000031200A002B0020000A
:10307000307825637025640030582563502564003E
:10308000307825632E252E2A6C6C787025640030EC
:103090005825632E252E2A6C6C58502564002D006F
:1030A00072007700286E756C6C29003058003078FB
:1030B000003000303132333435363738394142430D
:1030C0004445460030313233343536373839616261
:1030D00063646566002A2A2A205F437379735F61FF
:1030E0006C6C6F63206661696C65640A00FFFFFFAA
:0C30F000FFFFFFFFFFFFEF7F0800000064
:0430FC0000E1F505F5
:040000030000075999
:00000001FF
